{
  "contractName": "DegreeCredential",
  "abi": [
    {
      "inputs": [],
      "stateMutability": "nonpayable",
      "type": "constructor"
    },
    {
      "anonymous": false,
      "inputs": [
        {
          "indexed": false,
          "internalType": "string",
          "name": "degreeId",
          "type": "string"
        }
      ],
      "name": "DegreeExpired",
      "type": "event"
    },
    {
      "anonymous": false,
      "inputs": [
        {
          "indexed": false,
          "internalType": "string",
          "name": "degreeId",
          "type": "string"
        },
        {
          "indexed": false,
          "internalType": "address",
          "name": "owner",
          "type": "address"
        }
      ],
      "name": "DegreeMinted",
      "type": "event"
    },
    {
      "anonymous": false,
      "inputs": [
        {
          "indexed": false,
          "internalType": "string",
          "name": "degreeId",
          "type": "string"
        }
      ],
      "name": "DegreeRevoked",
      "type": "event"
    },
    {
      "inputs": [
        {
          "internalType": "string",
          "name": "",
          "type": "string"
        }
      ],
      "name": "degrees",
      "outputs": [
        {
          "internalType": "bool",
          "name": "exists",
          "type": "bool"
        },
        {
          "internalType": "string",
          "name": "degreeType",
          "type": "string"
        },
        {
          "internalType": "address",
          "name": "owner",
          "type": "address"
        },
        {
          "internalType": "string",
          "name": "ipfsHash",
          "type": "string"
        },
        {
          "internalType": "uint256",
          "name": "issuedAt",
          "type": "uint256"
        },
        {
          "internalType": "enum DegreeCredential.DegreeStatus",
          "name": "status",
          "type": "uint8"
        }
      ],
      "stateMutability": "view",
      "type": "function"
    },
    {
      "inputs": [],
      "name": "school",
      "outputs": [
        {
          "internalType": "address",
          "name": "",
          "type": "address"
        }
      ],
      "stateMutability": "view",
      "type": "function"
    },
    {
      "inputs": [
        {
          "internalType": "string",
          "name": "_degreeId",
          "type": "string"
        },
        {
          "internalType": "string",
          "name": "_degreeType",
          "type": "string"
        },
        {
          "internalType": "address",
          "name": "_owner",
          "type": "address"
        },
        {
          "internalType": "string",
          "name": "_ipfsHash",
          "type": "string"
        }
      ],
      "name": "mintDegree",
      "outputs": [],
      "stateMutability": "nonpayable",
      "type": "function"
    },
    {
      "inputs": [
        {
          "internalType": "string",
          "name": "_degreeId",
          "type": "string"
        }
      ],
      "name": "revokeDegree",
      "outputs": [],
      "stateMutability": "nonpayable",
      "type": "function"
    },
    {
      "inputs": [
        {
          "internalType": "string",
          "name": "_degreeId",
          "type": "string"
        }
      ],
      "name": "verifyDegree",
      "outputs": [
        {
          "internalType": "bool",
          "name": "exists",
          "type": "bool"
        },
        {
          "internalType": "string",
          "name": "degreeType",
          "type": "string"
        },
        {
          "internalType": "address",
          "name": "owner",
          "type": "address"
        },
        {
          "internalType": "enum DegreeCredential.DegreeStatus",
          "name": "status",
          "type": "uint8"
        },
        {
          "internalType": "string",
          "name": "ipfsHash",
          "type": "string"
        }
      ],
      "stateMutability": "view",
      "type": "function"
    }
  ],
  "bytecode": "0x608060405234801561001057600080fd5b50336000806101000a81548173ffffffffffffffffffffffffffffffffffffffff021916908373ffffffffffffffffffffffffffffffffffffffff160217905550611174806100606000396000f3fe608060405234801561001057600080fd5b50600436106100575760003560e01c80636581a3de1461005c578063812c8d5f14610078578063b62c1b0214610096578063c348c2a2146100cb578063cdc2d170146100e7575b600080fd5b61007660048036038101906100719190610b06565b61011b565b005b6100806102c0565b60405161008d9190610d6f565b60405180910390f35b6100b060048036038101906100ab9190610b06565b6102e4565b6040516100c296959493929190610deb565b60405180910390f35b6100e560048036038101906100e09190610b47565b610480565b005b61010160048036038101906100fc9190610b06565b61075d565b604051610112959493929190610d8a565b60405180910390f35b60008054906101000a900473ffffffffffffffffffffffffffffffffffffffff1673ffffffffffffffffffffffffffffffffffffffff163373ffffffffffffffffffffffffffffffffffffffff16146101a9576040517f08c379a00000000000000000000000000000000000000000000000000000000081526004016101a090610eec565b60405180910390fd5b6001816040516101b99190610d58565b908152602001604051809103902060000160009054906101000a900460ff16610217576040517f08c379a000000000000000000000000000000000000000000000000000000000815260040161020e90610eac565b60405180910390fd5b600180826040516102289190610d58565b908152602001604051809103902060050160006101000a81548160ff02191690836002811115610281577f4e487b7100000000000000000000000000000000000000000000000000000000600052602160045260246000fd5b02179055507fd7a717018c095237fec6961272d02c86b1da0f832ada85d79a7a46b6ce475064816040516102b59190610e5a565b60405180910390a150565b60008054906101000a900473ffffffffffffffffffffffffffffffffffffffff1681565b6001818051602081018201805184825260208301602085012081835280955050505050506000915090508060000160009054906101000a900460ff169080600101805461033090611043565b80601f016020809104026020016040519081016040528092919081815260200182805461035c90611043565b80156103a95780601f1061037e576101008083540402835291602001916103a9565b820191906000526020600020905b81548152906001019060200180831161038c57829003601f168201915b5050505050908060020160009054906101000a900473ffffffffffffffffffffffffffffffffffffffff16908060030180546103e490611043565b80601f016020809104026020016040519081016040528092919081815260200182805461041090611043565b801561045d5780601f106104325761010080835404028352916020019161045d565b820191906000526020600020905b81548152906001019060200180831161044057829003601f168201915b5050505050908060040154908060050160009054906101000a900460ff16905086565b60008054906101000a900473ffffffffffffffffffffffffffffffffffffffff1673ffffffffffffffffffffffffffffffffffffffff163373ffffffffffffffffffffffffffffffffffffffff161461050e576040517f08c379a000000000000000000000000000000000000000000000000000000000815260040161050590610eec565b60405180910390fd5b60018460405161051e9190610d58565b908152602001604051809103902060000160009054906101000a900460ff161561057d576040517f08c379a000000000000000000000000000000000000000000000000000000000815260040161057490610ecc565b60405180910390fd5b6040518060c001604052806001151581526020018481526020018373ffffffffffffffffffffffffffffffffffffffff168152602001828152602001428152602001600060028111156105f9577f4e487b7100000000000000000000000000000000000000000000000000000000600052602160045260246000fd5b81525060018560405161060c9190610d58565b908152602001604051809103902060008201518160000160006101000a81548160ff02191690831515021790555060208201518160010190805190602001906106569291906109e6565b5060408201518160020160006101000a81548173ffffffffffffffffffffffffffffffffffffffff021916908373ffffffffffffffffffffffffffffffffffffffff16021790555060608201518160030190805190602001906106ba9291906109e6565b506080820151816004015560a08201518160050160006101000a81548160ff02191690836002811115610716577f4e487b7100000000000000000000000000000000000000000000000000000000600052602160045260246000fd5b02179055509050507ff044dcd1b9eefe1903e45816c390e536673a2ff7720eb968c69e5de4dd7785f7848360405161074f929190610e7c565b60405180910390a150505050565b60006060600080606060006001876040516107789190610d58565b90815260200160405180910390206040518060c00160405290816000820160009054906101000a900460ff161515151581526020016001820180546107bc90611043565b80601f01602080910402602001604051908101604052809291908181526020018280546107e890611043565b80156108355780601f1061080a57610100808354040283529160200191610835565b820191906000526020600020905b81548152906001019060200180831161081857829003601f168201915b505050505081526020016002820160009054906101000a900473ffffffffffffffffffffffffffffffffffffffff1673ffffffffffffffffffffffffffffffffffffffff1673ffffffffffffffffffffffffffffffffffffffff1681526020016003820180546108a490611043565b80601f01602080910402602001604051908101604052809291908181526020018280546108d090611043565b801561091d5780601f106108f25761010080835404028352916020019161091d565b820191906000526020600020905b81548152906001019060200180831161090057829003601f168201915b50505050508152602001600482015481526020016005820160009054906101000a900460ff16600281111561097b577f4e487b7100000000000000000000000000000000000000000000000000000000600052602160045260246000fd5b60028111156109b3577f4e487b7100000000000000000000000000000000000000000000000000000000600052602160045260246000fd5b8152505090508060000151816020015182604001518360a001518460600151955095509550955095505091939590929450565b8280546109f290611043565b90600052602060002090601f016020900481019282610a145760008555610a5b565b82601f10610a2d57805160ff1916838001178555610a5b565b82800160010185558215610a5b579182015b82811115610a5a578251825591602001919060010190610a3f565b5b509050610a689190610a6c565b5090565b5b80821115610a85576000816000905550600101610a6d565b5090565b6000610a9c610a9784610f3d565b610f0c565b905082815260208101848484011115610ab457600080fd5b610abf848285611001565b509392505050565b600081359050610ad681611127565b92915050565b600082601f830112610aed57600080fd5b8135610afd848260208601610a89565b91505092915050565b600060208284031215610b1857600080fd5b600082013567ffffffffffffffff811115610b3257600080fd5b610b3e84828501610adc565b91505092915050565b60008060008060808587031215610b5d57600080fd5b600085013567ffffffffffffffff811115610b7757600080fd5b610b8387828801610adc565b945050602085013567ffffffffffffffff811115610ba057600080fd5b610bac87828801610adc565b9350506040610bbd87828801610ac7565b925050606085013567ffffffffffffffff811115610bda57600080fd5b610be687828801610adc565b91505092959194509250565b610bfb81610f94565b82525050565b610c0a81610fa6565b82525050565b610c1981610fef565b82525050565b6000610c2a82610f6d565b610c348185610f78565b9350610c44818560208601611010565b610c4d81611102565b840191505092915050565b6000610c6382610f6d565b610c6d8185610f89565b9350610c7d818560208601611010565b80840191505092915050565b6000610c96600983610f78565b91507f4e6f7420666f756e6400000000000000000000000000000000000000000000006000830152602082019050919050565b6000610cd6600d83610f78565b91507f44656772656520657869737473000000000000000000000000000000000000006000830152602082019050919050565b6000610d16600b83610f78565b91507f4f6e6c79207363686f6f6c0000000000000000000000000000000000000000006000830152602082019050919050565b610d5281610fe5565b82525050565b6000610d648284610c58565b915081905092915050565b6000602082019050610d846000830184610bf2565b92915050565b600060a082019050610d9f6000830188610c01565b8181036020830152610db18187610c1f565b9050610dc06040830186610bf2565b610dcd6060830185610c10565b8181036080830152610ddf8184610c1f565b90509695505050505050565b600060c082019050610e006000830189610c01565b8181036020830152610e128188610c1f565b9050610e216040830187610bf2565b8181036060830152610e338186610c1f565b9050610e426080830185610d49565b610e4f60a0830184610c10565b979650505050505050565b60006020820190508181036000830152610e748184610c1f565b905092915050565b60006040820190508181036000830152610e968185610c1f565b9050610ea56020830184610bf2565b9392505050565b60006020820190508181036000830152610ec581610c89565b9050919050565b60006020820190508181036000830152610ee581610cc9565b9050919050565b60006020820190508181036000830152610f0581610d09565b9050919050565b6000604051905081810181811067ffffffffffffffff82111715610f3357610f326110d3565b5b8060405250919050565b600067ffffffffffffffff821115610f5857610f576110d3565b5b601f19601f8301169050602081019050919050565b600081519050919050565b600082825260208201905092915050565b600081905092915050565b6000610f9f82610fc5565b9050919050565b60008115159050919050565b6000819050610fc082611113565b919050565b600073ffffffffffffffffffffffffffffffffffffffff82169050919050565b6000819050919050565b6000610ffa82610fb2565b9050919050565b82818337600083830152505050565b60005b8381101561102e578082015181840152602081019050611013565b8381111561103d576000848401525b50505050565b6000600282049050600182168061105b57607f821691505b6020821081141561106f5761106e6110a4565b5b50919050565b7f4e487b7100000000000000000000000000000000000000000000000000000000600052602160045260246000fd5b7f4e487b7100000000000000000000000000000000000000000000000000000000600052602260045260246000fd5b7f4e487b7100000000000000000000000000000000000000000000000000000000600052604160045260246000fd5b6000601f19601f8301169050919050565b6003811061112457611123611075565b5b50565b61113081610f94565b811461113b57600080fd5b5056fea26469706673582212202eefa6bbb3cc1dedc51642e1c792cdc0026f74fcea5bc14959a03c116f4faff164736f6c63430008000033",
  "immutableReferences": {},
  "source": "// SPDX-License-Identifier: MIT\npragma solidity ^0.8.0;\n\ncontract DegreeCredential {\n    address public school;\n\n    constructor() {\n        school = msg.sender;\n    }\n\n    modifier onlySchool() {\n        require(msg.sender == school, \"Only school\");\n        _;\n    }\n\n    enum DegreeStatus { VALID, REVOKED, EXPIRED }\n\n    struct Degree {\n        bool exists;\n        string degreeType;\n        address owner;\n        string ipfsHash;\n        uint256 issuedAt;\n        DegreeStatus status;\n    }\n\n    mapping(string => Degree) public degrees;\n\n    event DegreeMinted(string degreeId, address owner);\n    event DegreeRevoked(string degreeId);\n    event DegreeExpired(string degreeId);\n\n    function mintDegree(\n        string memory _degreeId,\n        string memory _degreeType,\n        address _owner,\n        string memory _ipfsHash\n    ) external onlySchool {\n        require(!degrees[_degreeId].exists, \"Degree exists\");\n\n        degrees[_degreeId] = Degree(\n            true,\n            _degreeType,\n            _owner,\n            _ipfsHash,\n            block.timestamp,\n            DegreeStatus.VALID\n        );\n\n        emit DegreeMinted(_degreeId, _owner);\n    }\n\n    function revokeDegree(string memory _degreeId) external onlySchool {\n        require(degrees[_degreeId].exists, \"Not found\");\n        degrees[_degreeId].status = DegreeStatus.REVOKED;\n        emit DegreeRevoked(_degreeId);\n    }\n\n    function verifyDegree(string memory _degreeId)\n        external\n        view\n        returns (\n            bool exists,\n            string memory degreeType,\n            address owner,\n            DegreeStatus status,\n            string memory ipfsHash\n        )\n    {\n        Degree memory d = degrees[_degreeId];\n        return (d.exists, d.degreeType, d.owner, d.status, d.ipfsHash);\n    }\n}\n",
  "sourcePath": "D:\\TieuLuanBlockChain-main\\contracts\\DegreeCredential.sol",
  "compiler": {
    "name": "solc",
    "version": "0.8.0+commit.c7dfd78e.Emscripten.clang"
  },
  "schemaVersion": "3.4.16",
  "updatedAt": "2026-03-01T06:00:21.559Z",
  "devdoc": {
    "kind": "dev",
    "methods": {},
    "version": 1
  },
  "userdoc": {
    "kind": "user",
    "methods": {},
    "version": 1
  }
}