{
  "contractName": "StudentCredential",
  "abi": [
    {
      "inputs": [],
      "stateMutability": "nonpayable",
      "type": "constructor"
    },
    {
      "inputs": [
        {
          "internalType": "string",
          "name": "",
          "type": "string"
        }
      ],
      "name": "degrees",
      "outputs": [
        {
          "internalType": "string",
          "name": "degreeId",
          "type": "string"
        },
        {
          "internalType": "string",
          "name": "degreeType",
          "type": "string"
        },
        {
          "internalType": "string",
          "name": "issuedBy",
          "type": "string"
        },
        {
          "internalType": "uint256",
          "name": "issuedAt",
          "type": "uint256"
        },
        {
          "internalType": "enum StudentCredential.DegreeStatus",
          "name": "status",
          "type": "uint8"
        },
        {
          "internalType": "address",
          "name": "owner",
          "type": "address"
        }
      ],
      "stateMutability": "view",
      "type": "function"
    },
    {
      "inputs": [],
      "name": "owner",
      "outputs": [
        {
          "internalType": "address",
          "name": "",
          "type": "address"
        }
      ],
      "stateMutability": "view",
      "type": "function"
    },
    {
      "inputs": [
        {
          "internalType": "address",
          "name": "",
          "type": "address"
        }
      ],
      "name": "students",
      "outputs": [
        {
          "internalType": "string",
          "name": "studentId",
          "type": "string"
        },
        {
          "internalType": "string",
          "name": "fullName",
          "type": "string"
        },
        {
          "internalType": "string",
          "name": "dateOfBirth",
          "type": "string"
        },
        {
          "internalType": "string",
          "name": "course",
          "type": "string"
        },
        {
          "internalType": "address",
          "name": "wallet",
          "type": "address"
        },
        {
          "internalType": "bool",
          "name": "exists",
          "type": "bool"
        }
      ],
      "stateMutability": "view",
      "type": "function"
    },
    {
      "inputs": [
        {
          "internalType": "address",
          "name": "_wallet",
          "type": "address"
        },
        {
          "internalType": "string",
          "name": "_studentId",
          "type": "string"
        },
        {
          "internalType": "string",
          "name": "_fullName",
          "type": "string"
        },
        {
          "internalType": "string",
          "name": "_dob",
          "type": "string"
        },
        {
          "internalType": "string",
          "name": "_course",
          "type": "string"
        }
      ],
      "name": "createStudent",
      "outputs": [],
      "stateMutability": "nonpayable",
      "type": "function"
    },
    {
      "inputs": [
        {
          "internalType": "string",
          "name": "_degreeId",
          "type": "string"
        },
        {
          "internalType": "string",
          "name": "_degreeType",
          "type": "string"
        },
        {
          "internalType": "address",
          "name": "_student",
          "type": "address"
        }
      ],
      "name": "mintDegree",
      "outputs": [],
      "stateMutability": "nonpayable",
      "type": "function"
    },
    {
      "inputs": [
        {
          "internalType": "string",
          "name": "_degreeId",
          "type": "string"
        }
      ],
      "name": "revokeDegree",
      "outputs": [],
      "stateMutability": "nonpayable",
      "type": "function"
    },
    {
      "inputs": [
        {
          "internalType": "string",
          "name": "_degreeId",
          "type": "string"
        }
      ],
      "name": "verifyDegree",
      "outputs": [
        {
          "internalType": "bool",
          "name": "exists",
          "type": "bool"
        },
        {
          "internalType": "string",
          "name": "degreeType",
          "type": "string"
        },
        {
          "internalType": "address",
          "name": "owner",
          "type": "address"
        },
        {
          "internalType": "enum StudentCredential.DegreeStatus",
          "name": "status",
          "type": "uint8"
        }
      ],
      "stateMutability": "view",
      "type": "function"
    }
  ],
  "bytecode": "0x608060405234801561001057600080fd5b50336000806101000a81548173ffffffffffffffffffffffffffffffffffffffff021916908373ffffffffffffffffffffffffffffffffffffffff160217905550611849806100606000396000f3fe608060405234801561001057600080fd5b506004361061007d5760003560e01c806398fca00f1161005b57806398fca00f146100d8578063a6c807a9146100f4578063b62c1b0214610129578063cdc2d1701461015e5761007d565b806351ea825d146100825780636581a3de1461009e5780638da5cb5b146100ba575b600080fd5b61009c6004803603810190610097919061122b565b610191565b005b6100b860048036038101906100b391906111ea565b610483565b005b6100c26105e9565b6040516100cf9190611427565b60405180910390f35b6100f260048036038101906100ed9190611113565b61060d565b005b61010e600480360381019061010991906110ea565b610805565b6040516101209695949392919061148e565b60405180910390f35b610143600480360381019061013e91906111ea565b610a8e565b6040516101559695949392919061150b565b60405180910390f35b610178600480360381019061017391906111ea565b610ca5565b6040516101889493929190611442565b60405180910390f35b60008054906101000a900473ffffffffffffffffffffffffffffffffffffffff1673ffffffffffffffffffffffffffffffffffffffff163373ffffffffffffffffffffffffffffffffffffffff161461021f576040517f08c379a0000000000000000000000000000000000000000000000000000000008152600401610216906115c1565b60405180910390fd5b600160008273ffffffffffffffffffffffffffffffffffffffff1673ffffffffffffffffffffffffffffffffffffffff16815260200190815260200160002060040160149054906101000a900460ff166102ae576040517f08c379a00000000000000000000000000000000000000000000000000000000081526004016102a590611581565b60405180910390fd5b6040518060c001604052808481526020018381526020016040518060400160405280600a81526020017f556e697665727369747900000000000000000000000000000000000000000000815250815260200142815260200160006001811115610340577f4e487b7100000000000000000000000000000000000000000000000000000000600052602160045260246000fd5b81526020018273ffffffffffffffffffffffffffffffffffffffff1681525060028460405161036f9190611410565b90815260200160405180910390206000820151816000019080519060200190610399929190610fca565b5060208201518160010190805190602001906103b6929190610fca565b5060408201518160020190805190602001906103d3929190610fca565b506060820151816003015560808201518160040160006101000a81548160ff0219169083600181111561042f577f4e487b7100000000000000000000000000000000000000000000000000000000600052602160045260246000fd5b021790555060a08201518160040160016101000a81548173ffffffffffffffffffffffffffffffffffffffff021916908373ffffffffffffffffffffffffffffffffffffffff160217905550905050505050565b60008054906101000a900473ffffffffffffffffffffffffffffffffffffffff1673ffffffffffffffffffffffffffffffffffffffff163373ffffffffffffffffffffffffffffffffffffffff1614610511576040517f08c379a0000000000000000000000000000000000000000000000000000000008152600401610508906115c1565b60405180910390fd5b60006002826040516105239190611410565b9081526020016040518091039020600301541415610576576040517f08c379a000000000000000000000000000000000000000000000000000000000815260040161056d906115a1565b60405180910390fd5b60016002826040516105889190611410565b908152602001604051809103902060040160006101000a81548160ff021916908360018111156105e1577f4e487b7100000000000000000000000000000000000000000000000000000000600052602160045260246000fd5b021790555050565b60008054906101000a900473ffffffffffffffffffffffffffffffffffffffff1681565b60008054906101000a900473ffffffffffffffffffffffffffffffffffffffff1673ffffffffffffffffffffffffffffffffffffffff163373ffffffffffffffffffffffffffffffffffffffff161461069b576040517f08c379a0000000000000000000000000000000000000000000000000000000008152600401610692906115c1565b60405180910390fd5b6040518060c001604052808581526020018481526020018381526020018281526020018673ffffffffffffffffffffffffffffffffffffffff16815260200160011515815250600160008773ffffffffffffffffffffffffffffffffffffffff1673ffffffffffffffffffffffffffffffffffffffff168152602001908152602001600020600082015181600001908051906020019061073c929190610fca565b506020820151816001019080519060200190610759929190610fca565b506040820151816002019080519060200190610776929190610fca565b506060820151816003019080519060200190610793929190610fca565b5060808201518160040160006101000a81548173ffffffffffffffffffffffffffffffffffffffff021916908373ffffffffffffffffffffffffffffffffffffffff16021790555060a08201518160040160146101000a81548160ff0219169083151502179055509050505050505050565b600160205280600052604060002060009150905080600001805461082890611718565b80601f016020809104026020016040519081016040528092919081815260200182805461085490611718565b80156108a15780601f10610876576101008083540402835291602001916108a1565b820191906000526020600020905b81548152906001019060200180831161088457829003601f168201915b5050505050908060010180546108b690611718565b80601f01602080910402602001604051908101604052809291908181526020018280546108e290611718565b801561092f5780601f106109045761010080835404028352916020019161092f565b820191906000526020600020905b81548152906001019060200180831161091257829003601f168201915b50505050509080600201805461094490611718565b80601f016020809104026020016040519081016040528092919081815260200182805461097090611718565b80156109bd5780601f10610992576101008083540402835291602001916109bd565b820191906000526020600020905b8154815290600101906020018083116109a057829003601f168201915b5050505050908060030180546109d290611718565b80601f01602080910402602001604051908101604052809291908181526020018280546109fe90611718565b8015610a4b5780601f10610a2057610100808354040283529160200191610a4b565b820191906000526020600020905b815481529060010190602001808311610a2e57829003601f168201915b5050505050908060040160009054906101000a900473ffffffffffffffffffffffffffffffffffffffff16908060040160149054906101000a900460ff16905086565b600281805160208101820180518482526020830160208501208183528095505050505050600091509050806000018054610ac790611718565b80601f0160208091040260200160405190810160405280929190818152602001828054610af390611718565b8015610b405780601f10610b1557610100808354040283529160200191610b40565b820191906000526020600020905b815481529060010190602001808311610b2357829003601f168201915b505050505090806001018054610b5590611718565b80601f0160208091040260200160405190810160405280929190818152602001828054610b8190611718565b8015610bce5780601f10610ba357610100808354040283529160200191610bce565b820191906000526020600020905b815481529060010190602001808311610bb157829003601f168201915b505050505090806002018054610be390611718565b80601f0160208091040260200160405190810160405280929190818152602001828054610c0f90611718565b8015610c5c5780601f10610c3157610100808354040283529160200191610c5c565b820191906000526020600020905b815481529060010190602001808311610c3f57829003601f168201915b5050505050908060030154908060040160009054906101000a900460ff16908060040160019054906101000a900473ffffffffffffffffffffffffffffffffffffffff16905086565b600060606000806000600286604051610cbe9190611410565b90815260200160405180910390206040518060c0016040529081600082018054610ce790611718565b80601f0160208091040260200160405190810160405280929190818152602001828054610d1390611718565b8015610d605780601f10610d3557610100808354040283529160200191610d60565b820191906000526020600020905b815481529060010190602001808311610d4357829003601f168201915b50505050508152602001600182018054610d7990611718565b80601f0160208091040260200160405190810160405280929190818152602001828054610da590611718565b8015610df25780601f10610dc757610100808354040283529160200191610df2565b820191906000526020600020905b815481529060010190602001808311610dd557829003601f168201915b50505050508152602001600282018054610e0b90611718565b80601f0160208091040260200160405190810160405280929190818152602001828054610e3790611718565b8015610e845780601f10610e5957610100808354040283529160200191610e84565b820191906000526020600020905b815481529060010190602001808311610e6757829003601f168201915b50505050508152602001600382015481526020016004820160009054906101000a900460ff166001811115610ee2577f4e487b7100000000000000000000000000000000000000000000000000000000600052602160045260246000fd5b6001811115610f1a577f4e487b7100000000000000000000000000000000000000000000000000000000600052602160045260246000fd5b81526020016004820160019054906101000a900473ffffffffffffffffffffffffffffffffffffffff1673ffffffffffffffffffffffffffffffffffffffff1673ffffffffffffffffffffffffffffffffffffffff16815250509050600081606001511415610fa8576000806001604051806020016040528060008152509190945094509450945050610fc3565b600181602001518260a0015183608001519450945094509450505b9193509193565b828054610fd690611718565b90600052602060002090601f016020900481019282610ff8576000855561103f565b82601f1061101157805160ff191683800117855561103f565b8280016001018555821561103f579182015b8281111561103e578251825591602001919060010190611023565b5b50905061104c9190611050565b5090565b5b80821115611069576000816000905550600101611051565b5090565b600061108061107b84611612565b6115e1565b90508281526020810184848401111561109857600080fd5b6110a38482856116d6565b509392505050565b6000813590506110ba816117fc565b92915050565b600082601f8301126110d157600080fd5b81356110e184826020860161106d565b91505092915050565b6000602082840312156110fc57600080fd5b600061110a848285016110ab565b91505092915050565b600080600080600060a0868803121561112b57600080fd5b6000611139888289016110ab565b955050602086013567ffffffffffffffff81111561115657600080fd5b611162888289016110c0565b945050604086013567ffffffffffffffff81111561117f57600080fd5b61118b888289016110c0565b935050606086013567ffffffffffffffff8111156111a857600080fd5b6111b4888289016110c0565b925050608086013567ffffffffffffffff8111156111d157600080fd5b6111dd888289016110c0565b9150509295509295909350565b6000602082840312156111fc57600080fd5b600082013567ffffffffffffffff81111561121657600080fd5b611222848285016110c0565b91505092915050565b60008060006060848603121561124057600080fd5b600084013567ffffffffffffffff81111561125a57600080fd5b611266868287016110c0565b935050602084013567ffffffffffffffff81111561128357600080fd5b61128f868287016110c0565b92505060406112a0868287016110ab565b9150509250925092565b6112b381611669565b82525050565b6112c28161167b565b82525050565b6112d1816116c4565b82525050565b60006112e282611642565b6112ec818561164d565b93506112fc8185602086016116e5565b611305816117d7565b840191505092915050565b600061131b82611642565b611325818561165e565b93506113358185602086016116e5565b80840191505092915050565b600061134e60118361164d565b91507f53747564656e74206e6f7420666f756e640000000000000000000000000000006000830152602082019050919050565b600061138e60108361164d565b91507f446567726565206e6f7420666f756e64000000000000000000000000000000006000830152602082019050919050565b60006113ce60178361164d565b91507f4f6e6c79207363686f6f6c2063616e20646f20746869730000000000000000006000830152602082019050919050565b61140a816116ba565b82525050565b600061141c8284611310565b915081905092915050565b600060208201905061143c60008301846112aa565b92915050565b600060808201905061145760008301876112b9565b818103602083015261146981866112d7565b905061147860408301856112aa565b61148560608301846112c8565b95945050505050565b600060c08201905081810360008301526114a881896112d7565b905081810360208301526114bc81886112d7565b905081810360408301526114d081876112d7565b905081810360608301526114e481866112d7565b90506114f360808301856112aa565b61150060a08301846112b9565b979650505050505050565b600060c082019050818103600083015261152581896112d7565b9050818103602083015261153981886112d7565b9050818103604083015261154d81876112d7565b905061155c6060830186611401565b61156960808301856112c8565b61157660a08301846112aa565b979650505050505050565b6000602082019050818103600083015261159a81611341565b9050919050565b600060208201905081810360008301526115ba81611381565b9050919050565b600060208201905081810360008301526115da816113c1565b9050919050565b6000604051905081810181811067ffffffffffffffff82111715611608576116076117a8565b5b8060405250919050565b600067ffffffffffffffff82111561162d5761162c6117a8565b5b601f19601f8301169050602081019050919050565b600081519050919050565b600082825260208201905092915050565b600081905092915050565b60006116748261169a565b9050919050565b60008115159050919050565b6000819050611695826117e8565b919050565b600073ffffffffffffffffffffffffffffffffffffffff82169050919050565b6000819050919050565b60006116cf82611687565b9050919050565b82818337600083830152505050565b60005b838110156117035780820151818401526020810190506116e8565b83811115611712576000848401525b50505050565b6000600282049050600182168061173057607f821691505b6020821081141561174457611743611779565b5b50919050565b7f4e487b7100000000000000000000000000000000000000000000000000000000600052602160045260246000fd5b7f4e487b7100000000000000000000000000000000000000000000000000000000600052602260045260246000fd5b7f4e487b7100000000000000000000000000000000000000000000000000000000600052604160045260246000fd5b6000601f19601f8301169050919050565b600281106117f9576117f861174a565b5b50565b61180581611669565b811461181057600080fd5b5056fea26469706673582212200cf389e7c0bb6fe62d92ae5f73043c54c249fadf392014ea41f892038553444264736f6c63430008000033",
  "immutableReferences": {},
  "source": "// SPDX-License-Identifier: UNLICENSED\npragma solidity ^0.8.0;\n\ncontract StudentCredential {\n\n    address public owner;\n\n    constructor() {\n        owner = msg.sender;\n    }\n\n    modifier onlyOwner() {\n        require(msg.sender == owner, \"Only school can do this\");\n        _;\n    }\n\n    /* =======================\n        STUDENT PROFILE\n    ======================= */\n\n    struct Student {\n        string studentId;\n        string fullName;\n        string dateOfBirth;\n        string course;\n        address wallet;\n        bool exists;\n    }\n\n    mapping(address => Student) public students;\n\n    function createStudent(\n        address _wallet,\n        string memory _studentId,\n        string memory _fullName,\n        string memory _dob,\n        string memory _course\n    ) public onlyOwner {\n        students[_wallet] = Student(\n            _studentId,\n            _fullName,\n            _dob,\n            _course,\n            _wallet,\n            true\n        );\n    }\n\n    /* =======================\n        DEGREE\n    ======================= */\n\n    enum DegreeStatus { VALID, REVOKED }\n\n    struct Degree {\n        string degreeId;\n        string degreeType;\n        string issuedBy;\n        uint256 issuedAt;\n        DegreeStatus status;\n        address owner;\n    }\n\n    mapping(string => Degree) public degrees;\n\n    function mintDegree(\n        string memory _degreeId,\n        string memory _degreeType,\n        address _student\n    ) public onlyOwner {\n        require(students[_student].exists, \"Student not found\");\n\n        degrees[_degreeId] = Degree(\n            _degreeId,\n            _degreeType,\n            \"University\",\n            block.timestamp,\n            DegreeStatus.VALID,\n            _student\n        );\n    }\n\n    function revokeDegree(string memory _degreeId) public onlyOwner {\n        require(degrees[_degreeId].issuedAt != 0, \"Degree not found\");\n        degrees[_degreeId].status = DegreeStatus.REVOKED;\n    }\n\n    function verifyDegree(string memory _degreeId)\n        public\n        view\n        returns (\n            bool exists,\n            string memory degreeType,\n            address owner,\n            DegreeStatus status\n        )\n    {\n        Degree memory d = degrees[_degreeId];\n        if (d.issuedAt == 0) {\n            return (false, \"\", address(0), DegreeStatus.REVOKED);\n        }\n        return (true, d.degreeType, d.owner, d.status);\n    }\n}\n",
  "sourcePath": "D:\\TieuLuanBlockChain-main\\contracts\\StudentCredential.sol",
  "compiler": {
    "name": "solc",
    "version": "0.8.0+commit.c7dfd78e.Emscripten.clang"
  },
  "schemaVersion": "3.4.16",
  "updatedAt": "2026-03-01T06:00:21.567Z",
  "devdoc": {
    "kind": "dev",
    "methods": {},
    "version": 1
  },
  "userdoc": {
    "kind": "user",
    "methods": {},
    "version": 1
  }
}